{
    "_format": "hh-sol-artifact-1",
    "contractName": "Transaction",
    "sourceName": "contracts/Transaction.sol",
    "abi": [
        {
            "inputs": [],
            "stateMutability": "nonpayable",
            "type": "constructor"
        },
        {
            "anonymous": false,
            "inputs": [
                {
                    "indexed": false,
                    "internalType": "address",
                    "name": "from",
                    "type": "address"
                },
                {
                    "indexed": false,
                    "internalType": "string",
                    "name": "message",
                    "type": "string"
                }
            ],
            "name": "transactionCompleted",
            "type": "event"
        },
        {
            "inputs": [],
            "name": "allTransaction",
            "outputs": [
                {
                    "components": [
                        {
                            "internalType": "string",
                            "name": "name",
                            "type": "string"
                        },
                        {
                            "internalType": "string",
                            "name": "message",
                            "type": "string"
                        },
                        {
                            "internalType": "uint256",
                            "name": "time",
                            "type": "uint256"
                        },
                        {
                            "internalType": "address",
                            "name": "from",
                            "type": "address"
                        }
                    ],
                    "internalType": "struct Transaction.transaction[]",
                    "name": "",
                    "type": "tuple[]"
                }
            ],
            "stateMutability": "view",
            "type": "function"
        },
        {
            "inputs": [
                {
                    "internalType": "string",
                    "name": "name",
                    "type": "string"
                },
                {
                    "internalType": "string",
                    "name": "message",
                    "type": "string"
                }
            ],
            "name": "buyCoffee",
            "outputs": [],
            "stateMutability": "payable",
            "type": "function"
        }
    ],
    "bytecode": "0x608060405234801561001057600080fd5b50336000806101000a81548173ffffffffffffffffffffffffffffffffffffffff021916908373ffffffffffffffffffffffffffffffffffffffff160217905550610b6f806100606000396000f3fe6080604052600436106100295760003560e01c8063204206e11461002e578063a20389451461004a575b600080fd5b610048600480360381019061004391906104e5565b610075565b005b34801561005657600080fd5b5061005f610293565b60405161006c919061077c565b60405180910390f35b6000341161008257600080fd5b60008054906101000a900473ffffffffffffffffffffffffffffffffffffffff1673ffffffffffffffffffffffffffffffffffffffff166108fc349081150290604051600060405180830381858888f193505050501580156100e8573d6000803e3d6000fd5b506001604051806080016040528086868080601f016020809104026020016040519081016040528093929190818152602001838380828437600081840152601f19601f82011690508083019250505050505050815260200184848080601f016020809104026020016040519081016040528093929190818152602001838380828437600081840152601f19601f8201169050808301925050505050505081526020014281526020013373ffffffffffffffffffffffffffffffffffffffff16815250908060018154018082558091505060019003906000526020600020906004020160009091909190915060008201518160000190816101e891906109d9565b5060208201518160010190816101fe91906109d9565b506040820151816002015560608201518160030160006101000a81548173ffffffffffffffffffffffffffffffffffffffff021916908373ffffffffffffffffffffffffffffffffffffffff16021790555050507fc71dd1fc4f9e3ff973af9513fe7e6bfe4cb3d75544a7b3de369e6f3f909aea4433838360405161028593929190610b07565b60405180910390a150505050565b60606001805480602002602001604051908101604052809291908181526020016000905b8282101561046d57838290600052602060002090600402016040518060800160405290816000820180546102ea906107fc565b80601f0160208091040260200160405190810160405280929190818152602001828054610316906107fc565b80156103635780601f1061033857610100808354040283529160200191610363565b820191906000526020600020905b81548152906001019060200180831161034657829003601f168201915b5050505050815260200160018201805461037c906107fc565b80601f01602080910402602001604051908101604052809291908181526020018280546103a8906107fc565b80156103f55780601f106103ca576101008083540402835291602001916103f5565b820191906000526020600020905b8154815290600101906020018083116103d857829003601f168201915b50505050508152602001600282015481526020016003820160009054906101000a900473ffffffffffffffffffffffffffffffffffffffff1673ffffffffffffffffffffffffffffffffffffffff1673ffffffffffffffffffffffffffffffffffffffff1681525050815260200190600101906102b7565b50505050905090565b600080fd5b600080fd5b600080fd5b600080fd5b600080fd5b60008083601f8401126104a5576104a4610480565b5b8235905067ffffffffffffffff8111156104c2576104c1610485565b5b6020830191508360018202830111156104de576104dd61048a565b5b9250929050565b600080600080604085870312156104ff576104fe610476565b5b600085013567ffffffffffffffff81111561051d5761051c61047b565b5b6105298782880161048f565b9450945050602085013567ffffffffffffffff81111561054c5761054b61047b565b5b6105588782880161048f565b925092505092959194509250565b600081519050919050565b600082825260208201905092915050565b6000819050602082019050919050565b600081519050919050565b600082825260208201905092915050565b60005b838110156105cc5780820151818401526020810190506105b1565b60008484015250505050565b6000601f19601f8301169050919050565b60006105f482610592565b6105fe818561059d565b935061060e8185602086016105ae565b610617816105d8565b840191505092915050565b6000819050919050565b61063581610622565b82525050565b600073ffffffffffffffffffffffffffffffffffffffff82169050919050565b60006106668261063b565b9050919050565b6106768161065b565b82525050565b6000608083016000830151848203600086015261069982826105e9565b915050602083015184820360208601526106b382826105e9565b91505060408301516106c8604086018261062c565b5060608301516106db606086018261066d565b508091505092915050565b60006106f2838361067c565b905092915050565b6000602082019050919050565b600061071282610566565b61071c8185610571565b93508360208202850161072e85610582565b8060005b8581101561076a578484038952815161074b85826106e6565b9450610756836106fa565b925060208a01995050600181019050610732565b50829750879550505050505092915050565b600060208201905081810360008301526107968184610707565b905092915050565b7f4e487b7100000000000000000000000000000000000000000000000000000000600052604160045260246000fd5b7f4e487b7100000000000000000000000000000000000000000000000000000000600052602260045260246000fd5b6000600282049050600182168061081457607f821691505b602082108103610827576108266107cd565b5b50919050565b60008190508160005260206000209050919050565b60006020601f8301049050919050565b600082821b905092915050565b60006008830261088f7fffffffffffffffffffffffffffffffffffffffffffffffffffffffffffffffff82610852565b6108998683610852565b95508019841693508086168417925050509392505050565b6000819050919050565b60006108d66108d16108cc84610622565b6108b1565b610622565b9050919050565b6000819050919050565b6108f0836108bb565b6109046108fc826108dd565b84845461085f565b825550505050565b600090565b61091961090c565b6109248184846108e7565b505050565b5b818110156109485761093d600082610911565b60018101905061092a565b5050565b601f82111561098d5761095e8161082d565b61096784610842565b81016020851015610976578190505b61098a61098285610842565b830182610929565b50505b505050565b600082821c905092915050565b60006109b060001984600802610992565b1980831691505092915050565b60006109c9838361099f565b9150826002028217905092915050565b6109e282610592565b67ffffffffffffffff8111156109fb576109fa61079e565b5b610a0582546107fc565b610a1082828561094c565b600060209050601f831160018114610a435760008415610a31578287015190505b610a3b85826109bd565b865550610aa3565b601f198416610a518661082d565b60005b82811015610a7957848901518255600182019150602085019450602081019050610a54565b86831015610a965784890151610a92601f89168261099f565b8355505b6001600288020188555050505b505050505050565b610ab48161065b565b82525050565b600082825260208201905092915050565b82818337600083830152505050565b6000610ae68385610aba565b9350610af3838584610acb565b610afc836105d8565b840190509392505050565b6000604082019050610b1c6000830186610aab565b8181036020830152610b2f818486610ada565b905094935050505056fea2646970667358221220aeeb4bad4f72c8ffe68ca9ccf988b4090dbcb47cfd5abbbb4473b3c1094afde364736f6c63430008130033",
    "linkReferences": {},
    "deployedLinkReferences": {}
}